:100000000C9483000C94B4000C94B4000C94B400D1
:100010000C94B4000C94B4000C94B4000C94B40090
:100020000C94B4000C94B4000C94B4000C94B40080
:100030000C94B4000C94B4000C94B4000C94B40070
:100040000C94B4000C94B4000C94B4000C94B40060
:100050000C94B4000C94B4000C94B4000C945404AC
:100060000C94B4000C94C8040C949E040C94B4003A
:100070000C94B4000C94B4000C94B4000C94B40030
:100080000C94B4000C94B4000C94B4000C94B40020
:100090000C94B4000C94B4000C94B4000C94B40010
:1000A0000C94B4000C94B4000C94B4000C94B40000
:1000B0000C94B4000C94B4000C94B4000C94B400F0
:1000C0000C94B4000C94B4000C94B4000C94B400E0
:1000D0000C94B4000C94B4000C94B4000C94B400D0
:1000E0000C94B4000C9491060C94B7000C9450013D
:1000F0000C9496010C94ED000C94E3010C94FC001C
:100100000C945E01910611241FBECFEFD1E2DEBF39
:10011000CDBF00E00CBF23E0ACE7B2E001C01D9210
:10012000A632B207E1F712E0A0E0B2E0E8E3F2E1C4
:1001300000E00BBF02C007900D92AC37B107D9F7B2
:1001400010E0C3E8D0E000E006C021970109802F4D
:10015000FE010E94F306C238D10780E00807A9F724
:100160000E94FE040C941A090C9400000895AF92AA
:10017000BF92CF92DF92EF92FF920F931F93CF9394
:10018000DF936C017B018B01040F151FEB015E01F6
:10019000AE18BF08C017D10759F06991D601ED918B
:1001A000FC910190F081E02DC6011995892B79F71A
:1001B000C501DF91CF911F910F91FF90EF90DF90DC
:1001C000CF90BF90AF900895FC014481558160812C
:1001D000718185E892E00C94B700FC01538D448D49
:1001E000252F30E0842F90E0821B930B541710F0E2
:1001F000CF96089501970895FC01918D828D9817EF
:1002000061F0A28DAE0FBF2FB11D5D968C91928DC6
:100210009F5F9F73928F90E008958FEF9FEF0895F7
:100220002FB7F8948091810290918202A09183026D
:10023000B09184022FBF80938D0290938E02A09381
:100240008F02B093900285E892E00E94FC0097FF35
:1002500026C02FB7F8948091810290918202A091DC
:100260008302B09184022FBF40918D0250918E0283
:1002700060918F0270919002841B950BA60BB70BB7
:100280004091890250918A0260918B0270918C0298
:1002900084179507A607B707B0F28FEF9FEF089571
:1002A000FC01918D828D981731F0828DE80FF11D40
:1002B000858D90E008958FEF9FEF0895FC01918D5B
:1002C000228D892F90E0805C9F4F821B91098F7354
:1002D0009927089585E892E00E945E0121E0892B2C
:1002E00009F420E0822F0895FC01A48DA80FB92FF6
:1002F000B11DA35ABF4F2C91848D90E001968F734E
:100300009927848FA689B7892C93A089B1898C916C
:10031000837080648C93938D848D981306C00288BB
:10032000F389E02D80818F7D80830895EF92FF9285
:100330000F931F93CF93DF93EC0181E0888F9B8D08
:100340008C8D98131AC0E889F989808185FF15C0C2
:100350009FB7F894EE89FF896083E889F9898081E5
:100360008370806480839FBF81E090E0DF91CF91B4
:100370001F910F91FF90EF900895F62E0B8D10E0D6
:100380000F5F1F4F0F731127E02E8C8D8E110CC045
:100390000FB607FCFACFE889F989808185FFF5CF90
:1003A000CE010E947401F1CFEB8DEC0FFD2FF11DFA
:1003B000E35AFF4FF0829FB7F8940B8FEA89FB89CD
:1003C00080818062CFCFCF93DF93EC01888D88232B
:1003D000B9F0AA89BB89E889F9898C9185FD03C0A8
:1003E000808186FD0DC00FB607FCF7CF8C9185FF8D
:1003F000F2CF808185FFEDCFCE010E947401E9CF5D
:10040000DF91CF91089580E090E0892B29F00E9440
:100410006A0181110E94000080E090E0892B49F080
:1004200080E090E0892B29F00E94000081110E9459
:10043000000080E090E0892B49F080E090E0892B7B
:1004400029F00E94000081110E94000080E090E0ED
:10045000892B49F080E090E0892B29F00E94000070
:1004600081110C94000008950F931F93CF93DF9395
:10047000EC0188819981009759F02A813B812617E8
:10048000370730F081E0DF91CF911F910F910895F0
:100490008B016F5F7F4F0E942008009759F099836E
:1004A00088831B830A832C813D81232B59F7FC0110
:1004B0001082E8CF80E0E7CFEF92FF920F931F9377
:1004C000CF93DF936115710541F480E0DF91CF9107
:1004D0001F910F91FF90EF90089541155105B1F0D4
:1004E0007B01EC010C811D81040F151FB8010E94D6
:1004F0003402882351F3288139818C819D81B70191
:10050000820F931F0E9413091D830C8381E0DECFAD
:10051000CF93DF93EC0188819981009711F00E94BD
:100520009707198218821D821C821B821A82DF9112
:10053000CF910895CF93DF93EC01FB010190002050
:10054000E9F73197AF01461B570B0E945C028111FE
:1005500003C0CE010E948802CE01DF91CF910895A1
:10056000CF93DF93EC01FB01448155816081718160
:100570000E945C02811103C0CE010E948802CE015C
:10058000DF91CF910895EF92FF920F931F93CF9336
:10059000DF93EC017B018A01BA010E9434028111D0
:1005A0000BC0CE010E948802CE01DF91CF911F9136
:1005B0000F91FF90EF9008951D830C83B701888100
:1005C00099810E941309F0CFEF92FF920F931F932E
:1005D000CF93DF93CDB7DEB762970FB6F894DEBF47
:1005E0000FBECDBF8C01FC011182108213821282DA
:1005F000158214824AE0CE0101967C01BC0190E094
:1006000080E00E94BE06F70101900020E9F73197D3
:10061000AF014E195F09B701C8010E94C30262967B
:100620000FB6F894DEBF0FBECDBFDF91CF911F9103
:100630000F91FF90EF900895CF93DF93EC01FB01B2
:100640008617970749F0608171816115710541F046
:10065000448155810E94C302CE01DF91CF9108955C
:100660000E948802F9CFFC0111821082138212824B
:1006700015821482FB0101900020E9F73197AF0148
:10068000461B570B0C94C302FC018081918100979B
:1006900011F00C94970708950F931F93CF93DF9356
:1006A00000D000D01F921F92CDB7DEB78C011A8206
:1006B00019821C821B821E821D82CE0101960E941D
:1006C0001C0368E172E0CE0101960E949A020E942A
:1006D000E400CE0101960E94440369E172E0C80182
:1006E0000E943303D80114968D919C911597892B04
:1006F00029F0ED91FC91808181114EC069E172E099
:10070000CE0101960E9433030E94100197FD0FC095
:100710008A30910561F08F83188641E050E0BE0178
:10072000695F7F4FCE0101960E945C02EDCFF80118
:10073000808191810097F1F069817A81611571055D
:10074000B9F0428153812D813E814217530780F0D9
:100750000E9413098D819E81D80115969C938E93DA
:1007600014971E821D82CE0101960E944403BACFC7
:100770000E94970789819A81F801918380838B81F8
:100780009C81938382838D819E81958384831A8249
:1007900019821C821B82E5CFC80128960FB6F894F7
:1007A000DEBF0FBECDBFDF91CF911F910F91089596
:1007B0001F93CF93DF93CDB7DEB72C970FB6F89486
:1007C000DEBF0FBECDBF1A8219821C821B821E8221
:1007D0001D82BC01CE0101960E941C03BE016F5F09
:1007E0007F4FCE0107960E944C03CE0101960E94D6
:1007F00044038B859C85892B49F06AE172E08F81E7
:1008000098850E940A0911E0892B09F010E0CE01B9
:1008100007960E944403812F2C960FB6F894DEBFF2
:100820000FBECDBFDF91CF911F9108951F93CF933E
:10083000DF93CDB7DEB72C970FB6F894DEBF0FBEAF
:10084000CDBF1A8219821C821B821E821D82BC01AE
:10085000CE0101960E941C03BE016F5F7F4FCE0147
:1008600007960E944C03CE0101960E9444038B859B
:100870009C85892B49F06FE172E08F8198850E94F9
:100880000A0911E0892B09F010E0CE0107960E94B9
:100890004403812F2C960FB6F894DEBF0FBECDBF58
:1008A000DF91CF911F9108951F920F920FB60F9273
:1008B00011242F933F938F939F93AF93BF93809176
:1008C000810290918202A0918302B09184023091C2
:1008D000800223E0230F2D3758F50196A11DB11D8D
:1008E000209380028093810290938202A0938302DE
:1008F000B093840280917C0290917D02A0917E024F
:10090000B0917F020196A11DB11D80937C0290934E
:100910007D02A0937E02B0937F02BF91AF919F9121
:100920008F913F912F910F900FBE0F901F901895B0
:1009300026E8230F0296A11DB11DD2CF1F920F9260
:100940000FB60F9211240BB60F922F933F934F9334
:100950005F936F937F938F939F93AF93BF93EF9327
:10096000FF9385E892E00E947401FF91EF91BF919F
:10097000AF919F918F917F916F915F914F913F9137
:100980002F910F900BBE0F900FBE0F901F901895D8
:100990001F920F920FB60F9211240BB60F922F9346
:1009A0008F939F93EF93FF93E0919502F0919602BE
:1009B0008081E0919B02F0919C0282FD1DC090819C
:1009C00080919E028F5F8F7320919F02821741F06A
:1009D000E0919E02F0E0EB57FD4F958F80939E02D1
:1009E000FF91EF919F918F912F910F900BBE0F90E0
:1009F0000FBE0F901F9018958081F2CFCF93DF9399
:100A0000CDB7DEB768970FB6F894DEBF0FBECDBF87
:100A1000789484B5826084BD84B5816084BD85B5D9
:100A2000826085BD85B5816085BD80916E008160E5
:100A300080936E001092810080918100826080938B
:100A4000810080918100816080938100809180008D
:100A50008160809380008091B10084608093B100B8
:100A60008091B00081608093B0008091910082609D
:100A7000809391008091910081608093910080919A
:100A800090008160809390008091A10082608093AB
:100A9000A1008091A10081608093A1008091A000BD
:100AA00081608093A0008091210182608093210168
:100AB00080912101816080932101809120018160DA
:100AC0008093200180917A00846080937A008091E5
:100AD0007A00826080937A0080917A0081608093AE
:100AE0007A0080917A00806880937A001092C10029
:100AF000E0919502F091960282E08083E09191026C
:100B0000F09192021082E0919302F091940287E6B4
:100B1000808310929D02E0919902F0919A0286E002
:100B20008083E0919702F0919802808180618083B8
:100B3000E0919702F0919802808188608083E09133
:100B40009702F0919802808180688083E0919702FB
:100B5000F091980280818F7D808363E272E0CE0104
:100B600007960E9433036EE272E08E010F5F1F4F03
:100B7000C8010E943303BE01695F7F4FC8010E9414
:100B8000B00268E172E00E949A020E94E400C8018B
:100B90000E944403CE0107960E9444031C8A1B8ACC
:100BA0001E8A1D8A188E1F8A87E489831A82F8019B
:100BB00001900020E9F73197AF01401B510BB801BC
:100BC000CE0143960E94C302CE010D960E94E4021C
:100BD000CE0107960E94E40263E372E0C8010E941E
:100BE0003303BE01695F7F4FC8010E94B00261E319
:100BF00072E00E949A02BE01635F7F4F0E94B002C2
:100C000061E372E00E949A02BE016D5E7F4F0E9416
:100C1000B00268E172E00E949A020E94E400C801FA
:100C20000E944403CE0107960E944403CE010D9614
:100C30000E944403CE0143960E9444036DE372E098
:100C4000CE0143960E943303CE010D960E94E4022A
:100C5000CE0107960E94E40261E472E0C8010E949E
:100C60003303BE01695F7F4FC8010E94B00261E398
:100C700072E00E949A02BE01635F7F4F0E94B00241
:100C800061E372E00E949A02BE016D5E7F4F0E9496
:100C9000B00268E172E00E949A020E94E400C8017A
:100CA0000E944403CE0107960E944403CE010D9694
:100CB0000E944403CE0143960E9444036AE472E01A
:100CC000C8010E943303C8010E94D803F82EC8014E
:100CD0000E944403F1100BC063E572E0C8010E945A
:100CE0003303C8010E941604C8010E9444036CE546
:100CF00072E0C8010E943303C8010E94D803F82E95
:100D0000C8010E94440366E672E0F110E7CF60E795
:100D100072E0C8010E943303C8010E941604C80192
:100D2000CBCFE5E8F2E01382128288EE93E0A0E0F8
:100D3000B0E084839583A683B7838AE092E09183B1
:100D4000808385EC90E09587848784EC90E097879A
:100D5000868780EC90E0918B808B81EC90E0938B88
:100D6000828B82EC90E0958B848B86EC90E0978B65
:100D7000868B118E128E138E148E0895BB274A30E7
:100D800031F4992322F4BDE2909581959F4F0C9404
:100D9000CA06BB27FB015527AA27880F991FAA1F40
:100DA000A41710F0A41B83955051B9F7A05DAA3386
:100DB00008F0A95DA193009779F7B111B193119251
:100DC000CB010C94E306DC01FC01672F71917723C2
:100DD000E1F7329704C07C916D9370836291AE17F6
:100DE000BF07C8F30895EE0FFF1F881F8BBF079042
:100DF000F691E02D19940F931F93CF93DF938230D8
:100E0000910510F482E090E0E0912403F091250335
:100E100030E020E0B0E0A0E0309799F421153105F2
:100E200009F44AC0281B390B24303105D8F58A81D2
:100E30009B816115710589F1FB0193838283FE011A
:100E400011C0408151810281138148175907E0F098
:100E50004817590799F4109761F012960C9312975E
:100E600013961C933296CF01DF91CF911F910F9172
:100E700008950093240310932503F4CF2115310521
:100E800051F04217530738F0A901DB019A01BD0167
:100E9000DF01F801C1CFEF01F9CF909325038093D3
:100EA0002403CDCFFE01E20FF31F819391932250D3
:100EB000310939832883D7CF20912203309123032E
:100EC000232B41F42091020230910302309323033B
:100ED0002093220320910002309101022115310557
:100EE00041F42DB73EB74091040250910502241BF6
:100EF000350BE0912203F0912303E217F307A0F4EE
:100F00002E1B3F0B2817390778F0AC014E5F5F4F5F
:100F10002417350748F04E0F5F1F5093230340936B
:100F20002203819391939FCFF0E0E0E09CCFCF9399
:100F3000DF930097E9F0FC01329713821282A091AF
:100F40002403B0912503ED0130E020E01097A1F4D7
:100F500020813181820F931F20912203309123033E
:100F60002817390709F061C0F0932303E0932203A7
:100F7000DF91CF910895EA01CE17DF07E8F54A81A6
:100F80005B819E0141155105B1F7E901FB83EA83BD
:100F900049915991C40FD51FEC17FD0761F4808169
:100FA00091810296840F951FE9019983888382813C
:100FB00093819B838A83F0E0E0E012968D919C916F
:100FC00013970097B9F52D913C911197CD01029699
:100FD000820F931F20912203309123032817390792
:100FE00039F6309751F51092250310922403B093EF
:100FF0002303A0932203BCCFD383C28340815181BA
:10100000840F951FC817D90761F44E5F5F4F888121
:101010009981480F591F518340838A819B81938313
:1010200082832115310509F0B0CFF0932503E093B9
:1010300024039ECFFD01DC01C0CF13821282D7CFE3
:101040004F925F926F927F928F929F92AF92BF92D8
:10105000CF92DF92EF92FF920F931F93CF93DF9384
:101060008C01009799F4CB01DF91CF911F910F91E3
:10107000FF90EF90DF90CF90BF90AF909F908F90B8
:101080007F906F905F904F900C94FB06FC01E60FF1
:10109000F71F9C0122503109E217F30708F4AEC094
:1010A000D901CD91DC911197C617D70720F1C53032
:1010B000D10578F0CE0104978617970750F0C61B2C
:1010C000D70B2297C193D1936D937C93CF010E944C
:1010D0009707C801DF91CF911F910F91FF90EF907B
:1010E000DF90CF90BF90AF909F908F907F906F9048
:1010F0005F904F9008955B01AC1ABD0A4C018C0EB5
:101100009D1EA0912403B0912503512C412CF12C5C
:10111000E12C109731F580912203909123038815DB
:10112000990509F05CC04616570608F058C0809132
:10113000000290910102009741F48DB79EB7409153
:10114000040250910502841B950BE817F90708F07B
:1011500055C0F0932303E0932203F9017183608368
:10116000B8CF8D919C91119712966C90129713960F
:101170007C901397A815B90559F56C0142E0C40E8F
:10118000D11CCA14DB0420F1AC014A195B09DA0155
:101190001296159780F06282738251834083D90141
:1011A0006D937C93E114F10471F0D7011396FC93D5
:1011B000EE9312978ECF22968C0F9D1FF90191838B
:1011C0008083F301EFCFF0932503E093240381CFD5
:1011D0004816590608F42C017D01D3019ACFCB01A2
:1011E0000E94FB067C01009749F0AE01B8010E9405
:1011F0000109C8010E94970787016BCF10E000E04A
:1012000068CFFB01DC0102C001900D9241505040BB
:10121000D8F70895FB01DC018D9101908019011030
:10122000D9F3990B0895FB01DC0101900D92002088
:08123000E1F70895F894FFCFE7
:10123800000026038000000000009601B700ED00C2
:10124800E3015E01FC0050010A00747275650061DB
:10125800636B0052756E6E696E672E2E2E006C6F72
:10126800672000736574436F6C6F7220006162635E
:101278000073657454657874200077616C6C4C65F4
:101288006674007475726E4C6566740077616C6C78
:1012980046726F6E74007475726E52696768740076
:0C12A8006D6F7665466F727761726400AE
:00000001FF
